{
  "contractName": "BasketFactory",
  "abi": [
    {
      "constant": false,
      "inputs": [
        {
          "name": "_tokens",
          "type": "address[]"
        },
        {
          "name": "_weights",
          "type": "uint256[]"
        },
        {
          "name": "_fee",
          "type": "uint256"
        }
      ],
      "name": "createBasket",
      "outputs": [
        {
          "name": "newBasket",
          "type": "address"
        }
      ],
      "payable": false,
      "stateMutability": "nonpayable",
      "type": "function"
    },
    {
      "constant": true,
      "inputs": [
        {
          "name": "",
          "type": "uint256"
        }
      ],
      "name": "baskets",
      "outputs": [
        {
          "name": "",
          "type": "address"
        }
      ],
      "payable": false,
      "stateMutability": "view",
      "type": "function"
    }
  ],
  "bytecode": "0x6060604052341561000f57600080fd5b611b658061001e6000396000f30060606040526004361061004c576000357c0100000000000000000000000000000000000000000000000000000000900463ffffffff1680638ce4fd3314610051578063a60ed37414610134575b600080fd5b341561005c57600080fd5b6100f260048080359060200190820180359060200190808060200260200160405190810160405280939291908181526020018383602002808284378201915050505050509190803590602001908201803590602001908080602002602001604051908101604052809392919081815260200183836020028082843782019150505050505091908035906020019091905050610197565b604051808273ffffffffffffffffffffffffffffffffffffffff1673ffffffffffffffffffffffffffffffffffffffff16815260200191505060405180910390f35b341561013f57600080fd5b61015560048080359060200190919050506102f9565b604051808273ffffffffffffffffffffffffffffffffffffffff1673ffffffffffffffffffffffffffffffffffffffff16815260200191505060405180910390f35b600080848433856101a6610338565b8080602001806020018573ffffffffffffffffffffffffffffffffffffffff1673ffffffffffffffffffffffffffffffffffffffff168152602001848152602001838103835287818151815260200191508051906020019060200280838360005b83811015610222578082015181840152602081019050610207565b50505050905001838103825286818151815260200191508051906020019060200280838360005b83811015610264578082015181840152602081019050610249565b505050509050019650505050505050604051809103906000f080151561028957600080fd5b90506000805480600101828161029f9190610348565b9160005260206000209001600083909190916101000a81548173ffffffffffffffffffffffffffffffffffffffff021916908373ffffffffffffffffffffffffffffffffffffffff16021790555050809150509392505050565b60008181548110151561030857fe5b90600052602060002090016000915054906101000a900473ffffffffffffffffffffffffffffffffffffffff1681565b6040516117a08061039a83390190565b81548183558181151161036f5781836000526020600020918201910161036e9190610374565b5b505050565b61039691905b8082111561039257600081600090555060010161037a565b5090565b905600606060405234156200001057600080fd5b604051620017a0380380620017a083398101604052808051820191906020018051820191906020018051906020019091908051906020019091905050836003908051906020019062000064929190620000d0565b5082600490805190602001906200007d9291906200015f565b5081600560006101000a81548173ffffffffffffffffffffffffffffffffffffffff021916908373ffffffffffffffffffffffffffffffffffffffff16021790555080600681905550505050506200021f565b8280548282559060005260206000209081019282156200014c579160200282015b828111156200014b5782518260006101000a81548173ffffffffffffffffffffffffffffffffffffffff021916908373ffffffffffffffffffffffffffffffffffffffff16021790555091602001919060010190620000f1565b5b5090506200015b9190620001b1565b5090565b8280548282559060005260206000209081019282156200019e579160200282015b828111156200019d57825182559160200191906001019062000180565b5b509050620001ad9190620001f7565b5090565b620001f491905b80821115620001f057600081816101000a81549073ffffffffffffffffffffffffffffffffffffffff021916905550600101620001b8565b5090565b90565b6200021c91905b8082111562000218576000816000905550600101620001fe565b5090565b90565b611571806200022f6000396000f3006060604052600436106100d0576000357c0100000000000000000000000000000000000000000000000000000000900463ffffffff168063095ea7b3146100d557806318160ddd1461012f57806323b872dd1461015857806346ec3b7b146101d15780634f64b2be14610226578063661884631461028957806370a08231146102e3578063843f61e214610330578063a85c38ef14610351578063a9059cbb146103c6578063b5f163ff14610420578063d73dd62314610457578063dd62ed3e146104b1578063ddca3f431461051d575b600080fd5b34156100e057600080fd5b610115600480803573ffffffffffffffffffffffffffffffffffffffff16906020019091908035906020019091905050610546565b604051808215151515815260200191505060405180910390f35b341561013a57600080fd5b610142610638565b6040518082815260200191505060405180910390f35b341561016357600080fd5b6101b7600480803573ffffffffffffffffffffffffffffffffffffffff1690602001909190803573ffffffffffffffffffffffffffffffffffffffff16906020019091908035906020019091905050610642565b604051808215151515815260200191505060405180910390f35b34156101dc57600080fd5b6101e46109fc565b604051808273ffffffffffffffffffffffffffffffffffffffff1673ffffffffffffffffffffffffffffffffffffffff16815260200191505060405180910390f35b341561023157600080fd5b6102476004808035906020019091905050610a22565b604051808273ffffffffffffffffffffffffffffffffffffffff1673ffffffffffffffffffffffffffffffffffffffff16815260200191505060405180910390f35b341561029457600080fd5b6102c9600480803573ffffffffffffffffffffffffffffffffffffffff16906020019091908035906020019091905050610a61565b604051808215151515815260200191505060405180910390f35b34156102ee57600080fd5b61031a600480803573ffffffffffffffffffffffffffffffffffffffff16906020019091905050610cf2565b6040518082815260200191505060405180910390f35b61034f6004808035906020019091908035906020019091905050610d3a565b005b341561035c57600080fd5b6103726004808035906020019091905050610f0e565b604051808473ffffffffffffffffffffffffffffffffffffffff1673ffffffffffffffffffffffffffffffffffffffff16815260200183815260200182151515158152602001935050505060405180910390f35b34156103d157600080fd5b610406600480803573ffffffffffffffffffffffffffffffffffffffff16906020019091908035906020019091905050610f74565b604051808215151515815260200191505060405180910390f35b341561042b57600080fd5b6104416004808035906020019091905050611193565b6040518082815260200191505060405180910390f35b341561046257600080fd5b610497600480803573ffffffffffffffffffffffffffffffffffffffff169060200190919080359060200190919050506111b7565b604051808215151515815260200191505060405180910390f35b34156104bc57600080fd5b610507600480803573ffffffffffffffffffffffffffffffffffffffff1690602001909190803573ffffffffffffffffffffffffffffffffffffffff169060200190919050506113b3565b6040518082815260200191505060405180910390f35b341561052857600080fd5b61053061143a565b6040518082815260200191505060405180910390f35b600081600260003373ffffffffffffffffffffffffffffffffffffffff1673ffffffffffffffffffffffffffffffffffffffff16815260200190815260200160002060008573ffffffffffffffffffffffffffffffffffffffff1673ffffffffffffffffffffffffffffffffffffffff168152602001908152602001600020819055508273ffffffffffffffffffffffffffffffffffffffff163373ffffffffffffffffffffffffffffffffffffffff167f8c5be1e5ebec7d5bd14f71427d1e84f3dd0314c0f7b2291e5b200ac8c7c3b925846040518082815260200191505060405180910390a36001905092915050565b6000600154905090565b60008073ffffffffffffffffffffffffffffffffffffffff168373ffffffffffffffffffffffffffffffffffffffff161415151561067f57600080fd5b6000808573ffffffffffffffffffffffffffffffffffffffff1673ffffffffffffffffffffffffffffffffffffffff1681526020019081526020016000205482111515156106cc57600080fd5b600260008573ffffffffffffffffffffffffffffffffffffffff1673ffffffffffffffffffffffffffffffffffffffff16815260200190815260200160002060003373ffffffffffffffffffffffffffffffffffffffff1673ffffffffffffffffffffffffffffffffffffffff16815260200190815260200160002054821115151561075757600080fd5b6107a8826000808773ffffffffffffffffffffffffffffffffffffffff1673ffffffffffffffffffffffffffffffffffffffff1681526020019081526020016000205461144090919063ffffffff16565b6000808673ffffffffffffffffffffffffffffffffffffffff1673ffffffffffffffffffffffffffffffffffffffff1681526020019081526020016000208190555061083b826000808673ffffffffffffffffffffffffffffffffffffffff1673ffffffffffffffffffffffffffffffffffffffff1681526020019081526020016000205461145990919063ffffffff16565b6000808573ffffffffffffffffffffffffffffffffffffffff1673ffffffffffffffffffffffffffffffffffffffff1681526020019081526020016000208190555061090c82600260008773ffffffffffffffffffffffffffffffffffffffff1673ffffffffffffffffffffffffffffffffffffffff16815260200190815260200160002060003373ffffffffffffffffffffffffffffffffffffffff1673ffffffffffffffffffffffffffffffffffffffff1681526020019081526020016000205461144090919063ffffffff16565b600260008673ffffffffffffffffffffffffffffffffffffffff1673ffffffffffffffffffffffffffffffffffffffff16815260200190815260200160002060003373ffffffffffffffffffffffffffffffffffffffff1673ffffffffffffffffffffffffffffffffffffffff168152602001908152602001600020819055508273ffffffffffffffffffffffffffffffffffffffff168473ffffffffffffffffffffffffffffffffffffffff167fddf252ad1be2c89b69c2b068fc378daa952ba7f163c4a11628f55a4df523b3ef846040518082815260200191505060405180910390a3600190509392505050565b600560009054906101000a900473ffffffffffffffffffffffffffffffffffffffff1681565b600381815481101515610a3157fe5b90600052602060002090016000915054906101000a900473ffffffffffffffffffffffffffffffffffffffff1681565b600080600260003373ffffffffffffffffffffffffffffffffffffffff1673ffffffffffffffffffffffffffffffffffffffff16815260200190815260200160002060008573ffffffffffffffffffffffffffffffffffffffff1673ffffffffffffffffffffffffffffffffffffffff16815260200190815260200160002054905080831115610b72576000600260003373ffffffffffffffffffffffffffffffffffffffff1673ffffffffffffffffffffffffffffffffffffffff16815260200190815260200160002060008673ffffffffffffffffffffffffffffffffffffffff1673ffffffffffffffffffffffffffffffffffffffff16815260200190815260200160002081905550610c06565b610b85838261144090919063ffffffff16565b600260003373ffffffffffffffffffffffffffffffffffffffff1673ffffffffffffffffffffffffffffffffffffffff16815260200190815260200160002060008673ffffffffffffffffffffffffffffffffffffffff1673ffffffffffffffffffffffffffffffffffffffff168152602001908152602001600020819055505b8373ffffffffffffffffffffffffffffffffffffffff163373ffffffffffffffffffffffffffffffffffffffff167f8c5be1e5ebec7d5bd14f71427d1e84f3dd0314c0f7b2291e5b200ac8c7c3b925600260003373ffffffffffffffffffffffffffffffffffffffff1673ffffffffffffffffffffffffffffffffffffffff16815260200190815260200160002060008873ffffffffffffffffffffffffffffffffffffffff1673ffffffffffffffffffffffffffffffffffffffff168152602001908152602001600020546040518082815260200191505060405180910390a3600191505092915050565b60008060008373ffffffffffffffffffffffffffffffffffffffff1673ffffffffffffffffffffffffffffffffffffffff168152602001908152602001600020549050919050565b610d42611477565b60006060604051908101604052803373ffffffffffffffffffffffffffffffffffffffff168152602001844201815260200160001515815250915060078054806001018281610d9191906114b1565b9160005260206000209060050201600084909190915060008201518160000160006101000a81548173ffffffffffffffffffffffffffffffffffffffff021916908373ffffffffffffffffffffffffffffffffffffffff1602179055506020820151816001015560408201518160020160006101000a81548160ff021916908315150217905550505050600090505b600380549050811015610f0857346064600483815481101515610e3f57fe5b9060005260206000209001548602811515610e5657fe5b04026007600160078054905003815481101515610e6f57fe5b90600052602060002090600502016003016000600384815481101515610e9157fe5b906000526020600020900160009054906101000a900473ffffffffffffffffffffffffffffffffffffffff1673ffffffffffffffffffffffffffffffffffffffff1673ffffffffffffffffffffffffffffffffffffffff168152602001908152602001600020819055508080600101915050610e20565b50505050565b600781815481101515610f1d57fe5b90600052602060002090600502016000915090508060000160009054906101000a900473ffffffffffffffffffffffffffffffffffffffff16908060010154908060020160009054906101000a900460ff16905083565b60008073ffffffffffffffffffffffffffffffffffffffff168373ffffffffffffffffffffffffffffffffffffffff1614151515610fb157600080fd5b6000803373ffffffffffffffffffffffffffffffffffffffff1673ffffffffffffffffffffffffffffffffffffffff168152602001908152602001600020548211151515610ffe57600080fd5b61104f826000803373ffffffffffffffffffffffffffffffffffffffff1673ffffffffffffffffffffffffffffffffffffffff1681526020019081526020016000205461144090919063ffffffff16565b6000803373ffffffffffffffffffffffffffffffffffffffff1673ffffffffffffffffffffffffffffffffffffffff168152602001908152602001600020819055506110e2826000808673ffffffffffffffffffffffffffffffffffffffff1673ffffffffffffffffffffffffffffffffffffffff1681526020019081526020016000205461145990919063ffffffff16565b6000808573ffffffffffffffffffffffffffffffffffffffff1673ffffffffffffffffffffffffffffffffffffffff168152602001908152602001600020819055508273ffffffffffffffffffffffffffffffffffffffff163373ffffffffffffffffffffffffffffffffffffffff167fddf252ad1be2c89b69c2b068fc378daa952ba7f163c4a11628f55a4df523b3ef846040518082815260200191505060405180910390a36001905092915050565b6004818154811015156111a257fe5b90600052602060002090016000915090505481565b600061124882600260003373ffffffffffffffffffffffffffffffffffffffff1673ffffffffffffffffffffffffffffffffffffffff16815260200190815260200160002060008673ffffffffffffffffffffffffffffffffffffffff1673ffffffffffffffffffffffffffffffffffffffff1681526020019081526020016000205461145990919063ffffffff16565b600260003373ffffffffffffffffffffffffffffffffffffffff1673ffffffffffffffffffffffffffffffffffffffff16815260200190815260200160002060008573ffffffffffffffffffffffffffffffffffffffff1673ffffffffffffffffffffffffffffffffffffffff168152602001908152602001600020819055508273ffffffffffffffffffffffffffffffffffffffff163373ffffffffffffffffffffffffffffffffffffffff167f8c5be1e5ebec7d5bd14f71427d1e84f3dd0314c0f7b2291e5b200ac8c7c3b925600260003373ffffffffffffffffffffffffffffffffffffffff1673ffffffffffffffffffffffffffffffffffffffff16815260200190815260200160002060008773ffffffffffffffffffffffffffffffffffffffff1673ffffffffffffffffffffffffffffffffffffffff168152602001908152602001600020546040518082815260200191505060405180910390a36001905092915050565b6000600260008473ffffffffffffffffffffffffffffffffffffffff1673ffffffffffffffffffffffffffffffffffffffff16815260200190815260200160002060008373ffffffffffffffffffffffffffffffffffffffff1673ffffffffffffffffffffffffffffffffffffffff16815260200190815260200160002054905092915050565b60065481565b600082821115151561144e57fe5b818303905092915050565b600080828401905083811015151561146d57fe5b8091505092915050565b606060405190810160405280600073ffffffffffffffffffffffffffffffffffffffff168152602001600081526020016000151581525090565b8154818355818115116114de576005028160050283600052602060002091820191016114dd91906114e3565b5b505050565b61154291905b8082111561153e57600080820160006101000a81549073ffffffffffffffffffffffffffffffffffffffff021916905560018201600090556002820160006101000a81549060ff0219169055506005016114e9565b5090565b905600a165627a7a72305820f4e61ffbb390d1b1d30d21473a486fc2dcc7386c107ba90d0dd2325644706f980029a165627a7a72305820748addbf69a98d0c0dd199f88c140dbbea5cd78d322051262c466e66ffe04c1a0029",
  "source": "pragma solidity ^0.4.13;\nimport \"../contracts/ERC20/StandardToken.sol\";\n\n/**\n * @title BasketFactory\n * @author CoinAlpha, Inc. <contact@coinalpha.com>\n *\n*/\n\ncontract BasketFactory {\n  address[] public baskets;\n  \n  // as an arranger, create a basket\n  function createBasket(\n      address[] _tokens,\n      uint[] _weights,\n      uint _fee)\n      public\n      returns (address newBasket)\n  { \n    Basket b = new Basket(_tokens, _weights, msg.sender, _fee);\n    baskets.push(b);\n    return b;  \n  }\n}\n\ncontract Basket is StandardToken {\n\n  // event LogOrder(address[] tokens, uint[] weights, uint[] minAmounts, uint[] currentAmounts);\n\n  struct Order {\n    address holder;\n    uint expiration;\n    bool filled;\n    mapping(address => uint) minAmounts;\n    mapping(address => uint) currentAmounts;\n  }\n  address[] public tokens;\n  uint[] public weights;\n  address public arranger;\n  uint public fee;\n  Order[] public orders;\n\n  function Basket(\n    address[] _tokens,\n    uint[] _weights,\n    address _arranger,\n    uint _fee)\n    public\n  {\n    tokens = _tokens;\n    weights = _weights;\n    arranger = _arranger;\n    fee = _fee;\n  }\n\n  // as a holder, place an order for a basket\n  function placeOrder(\n      uint _price,\n      uint _duration)\n      public\n      payable\n  {\n\n    // LogOrder(tokens, weights, _minAmounts, _currentAmounts);\n\n    Order memory newOrder = Order(\n      msg.sender,\n      now + _duration,\n      false\n    );\n    orders.push(newOrder);\n    // calc amounts\n    for (uint i = 0; i < tokens.length; i++) {\n      orders[orders.length - 1].minAmounts[tokens[i]] = _price * weights[i] / 100 * msg.value;\n    }\n\n  }\n\n}",
  "sourcePath": "/Users/feng/Code/basket-factory/contracts/BasketFactory.sol",
  "compiler": {
    "name": "solc",
    "version": "0.4.18+commit.9cf6e910.Emscripten.clang"
  },
  "schemaVersion": "1.0.1",
  "updatedAt": "2018-02-03T05:57:11.406Z"
}